:100000000C947A000C94B3000C94B3000C94B300DD
:100010000C94B3000C94B3000C94B3000C94B30094
:100020000C94B3000C94B3000C94B3000C94B30084
:100030000C94B3000C94B3000C94B3000C94B30074
:100040000C94B3000C94B3000C94B3000C94B30064
:100050000C94B3000C94B3000C94B3000C94B30054
:100060000C94B3000C94B3000C94B3000C94B30044
:100070000C94B3000C94B3000C94B3000C94B30034
:100080000C94B3000C94B3000C94B3000C94B30024
:100090000C94B3000C94B3000C94B3000C94B30014
:1000A0000C94B3000C94B3000C94B3000C94B30004
:1000B0000C94B3000C94B3000C94B3000C94B300F4
:1000C0000C94B3000C94B3000C94B3000C94B300E4
:1000D0000C94B3000C94B3000C94B3000C94B300D4
:1000E0000C94B3000C94B3000C94B3000C94B300C4
:1000F0000C94B30011241FBECFEFCDBFDFE7DEBFEE
:0C0100000E94A3000C949800F894FFCF1C
:10010C00E0E2F4E080818D7F808380818160808358
:10011C00E0E6F8E083E896E0808791878681806C42
:04012C008683089529
:10013000EC010E94B8000E94B700CE010E94B900F5
:06014000CE010E94B50093
:100146000E94860081E40E94AB0080E090E0089562
:10015600E0E6F8E0948195FFFDCF8093620808956C
:040166000C940000F5
:04016A000E9484006B
:02016E000895F2
:020170000895F0
:020172000895EE
:00000001FF
