:100000000C947A000C9413010C9413010C941301BA
:100010000C9413010C9413010C9413010C94130110
:100020000C9413010C9486000C9413010C9413018E
:100030000C9413010C9413010C9413010C941301F0
:100040000C9413010C9413010C9413010C941301E0
:100050000C9413010C9413010C9413010C941301D0
:100060000C9413010C9413010C9413010C941301C0
:100070000C9413010C9413010C9413010C941301B0
:100080000C9413010C9413010C9413010C941301A0
:100090000C9413010C9413010C9413010C94130190
:1000A0000C9413010C9413010C9413010C94130180
:1000B0000C9413010C9413010C9413010C94130170
:1000C0000C9413010C9413010C9413010C94130160
:1000D0000C9413010C9413010C9413010C94130150
:1000E0000C9413010C9413010C9413010C94130140
:1000F0000C94130111241FBECFEFCDBFDFE7DEBF8D
:0C0100000E94FF000C94E800F894FFCF70
:10010C001F920F920FB60F9211240BB60F922F93D2
:10011C003F934F935F936F937F938F939F93AF9383
:10012C00BF93EF93FF930E94FA00882319F00E946B
:10013C000C0102C00E94080181E080930B0AFF9120
:10014C00EF91BF91AF919F918F917F916F915F9143
:10015C004F913F912F910F900BBE0F900FBE0F90B0
:04016C001F90189533
:100170000E9410010E94CD000E9404010E94DB0039
:100180000E94F3007894E0E5F0E080818160808354
:0A019000889580818E7F8083F8CF70
:10019A00E0E6F4E084E08283828BE0E8F6E083E044
:0C01AA00828389E1858381E880830895C9
:1001B600F894E0E0FAE080E29EE486A397A381E06B
:0A01C600828783E88083789408950F
:1001D000EC010E9418010E941701CE010E94190132
:0601E000CE010E94150192
:0E01E600E0E5F0E08081897F826080830895EB
:0A01F40080918706829581700895BE
:0A01FE000E94B80080E090E0089530
:0802080084E0809301040895D5
:0802100084E0809306040895C8
:0802180084E0809305040895C1
:060220001092B4000895E5
:040226000C94000034
:04022A000E948400AA
:02022E00089531
:0202300008952F
:0202320008952D
:00000001FF
