:100000000C947A000C944D010C944D010C944D010C
:100010000C944D010C944D010C944D010C944D0128
:100020000C944D010C9486000C944D010C944D01E0
:100030000C944D010C944D010C944D010C944D0108
:100040000C944D010C944D010C944D010C944D01F8
:100050000C944D010C944D010C944D010C944D01E8
:100060000C944D010C94B8000C944D010C944D016E
:100070000C944D010C944D010C944D010C944D01C8
:100080000C944D010C944D010C944D010C944D01B8
:100090000C944D010C944D010C944D010C944D01A8
:1000A0000C944D010C944D010C944D010C944D0198
:1000B0000C944D010C944D010C944D010C944D0188
:1000C0000C944D010C944D010C944D010C944D0178
:1000D0000C944D010C944D010C944D010C944D0168
:1000E0000C944D010C944D010C944D010C944D0158
:1000F0000C944D0111241FBECFEFCDBFDFE7DEBF53
:0C0100000E944F010C942401F894FFCFE2
:10010C001F920F920FB60F9211240BB60F922F93D2
:10011C003F934F935F936F937F938F939F93AF9383
:10012C00BF93EF93FF930E943D01882319F00E9427
:10013C00460102C00E94420181E080930B0AFF91AC
:10014C00EF91BF91AF919F918F917F916F915F9143
:10015C004F913F912F910F900BBE0F900FBE0F90B0
:04016C001F90189533
:100170001F920F920FB60F9211240BB60F922F936E
:100180003F934F935F936F937F938F939F93AF931F
:10019000BF93EF93FF930E943D01882319F00E94C3
:1001A000460102C00E94420181E080938706FF91D0
:1001B000EF91BF91AF919F918F917F916F915F91DF
:1001C0004F913F912F910F900BBE0F900FBE0F904C
:0401D0001F901895CF
:1001D400CF93DF93E0E6F4E084E08283828BC0E295
:1001E400D4E08CE08B87A0E4B4E01B968C931B973F
:1001F400E0E8F4E083878FEF8C871C968C938487E8
:10020400E0E8F6E083E0828389E18583168281E871
:080214008083DF91CF91089572
:10021C000E944A010E94EA000E942F010E943601AE
:10022C00E0E5F0E08081897F82608083808181605D
:0C023C008083889580818E7F8083F8CFBE
:10024800EC010E9454010E945301CE010E94550105
:06025800CE010E945101DD
:0E025E00E0E0F2E080E2808B81E085A7089569
:0E026C0084E08093010481E08093E005089512
:0A027A008091870682958170089537
:0802840084E080930604089554
:08028C0084E08093050408954D
:060294001092B400089571
:04029A000C940000C0
:04029E000E940E01AB
:0402A2000E94840032
:0202A6000895B9
:0202A8000895B7
:0202AA000895B5
:00000001FF
