:100000000C947A000C9408010C9408010C940801DB
:100010000C9408010C9408010C9408010C9408013C
:100020000C9408010C9486000C9408010C940801AF
:100030000C9408010C9408010C9408010C9408011C
:100040000C9408010C9408010C9408010C9408010C
:100050000C9408010C9408010C9408010C940801FC
:100060000C9408010C9408010C9408010C940801EC
:100070000C9408010C9408010C9408010C940801DC
:100080000C9408010C9408010C9408010C940801CC
:100090000C9408010C9408010C9408010C940801BC
:1000A0000C9408010C9408010C9408010C940801AC
:1000B0000C9408010C9408010C9408010C9408019C
:1000C0000C9408010C9408010C9408010C9408018C
:1000D0000C9408010C9408010C9408010C9408017C
:1000E0000C9408010C9408010C9408010C9408016C
:1000F0000C94080111241FBECFEFCDBFDFE7DEBF98
:0C0100000E940A010C94E900F894FFCF63
:10010C001F920F920FB60F9211240BB60F922F93D2
:10011C003F934F935F936F937F938F939F93AF9383
:10012C00BF93EF93FF930E94F400882319F00E9471
:10013C00010102C00E94FD0081E080930B0AFF9137
:10014C00EF91BF91AF919F918F917F916F915F9143
:10015C004F913F912F910F900BBE0F900FBE0F90B0
:04016C001F90189533
:10017000CF93DF9384E080936204C0E2D4E08CE00C
:100180008B87A0E4B4E01B968C931B97E0E8F4E027
:1001900083878FEF8C871C968C938487E0E8F6E04A
:1001A00083E0828389E1858381E88083DF91CF9139
:0201B0000895B0
:1001B2000E9405010E94B8000E94F9000E94F4000A
:1001C200882319F00E940101F9CF0E94FD00F6CFA9
:1001D200EC010E940F010E940E01CE010E9410014B
:0601E200CE010E940C0199
:0A01E80080918706829581700895CA
:0801F20084E0809301040895EC
:0801FA0084E0809306040895DF
:0802020084E0809305040895D7
:06020A001092B4000895FB
:040210000C9400004A
:040214000E94D9006B
:040218000E948400BC
:02021C00089543
:02021E00089541
:0202200008953F
:00000001FF
